:0C06A000013900013A00013B00013C0060
:1002760053D9BF120737120791C2861207A7120772
:10028600B61207C312003ED2AF7FA07E0F1206D968
:100296007B007A00793BC003C002C0017B007A0074
:1002A600793C8B1D8A1E891FD001D002D003120013
:1002B60003E53C64036014C2857F647E001206D9A0
:1002C600D2857F647E001206D980EC7B007A0079A5
:1002D60039C003C002C0017B007A00793A8B2B8AB1
:1002E6002C892DD001D002D003120625E53A647878
:1002F6006014C2857FF47E011206D9D2857FF47E12
:10030600011206D980EC7FE87E031206D9C28580E9
:01031600FEE8
:0103170022C3
:10073700754C00754D0075B30175B280E5B2C413F1
:10074700135403F54C534C01E54C60F075A900E5D3
:0D075700A9C41313135401F54DE54D60F2D4
:010764002272
:1007910075A52D43D53075D40775E10475E2407513
:0607A100E3407590FF2209
:0F07A700438E08758920758DAF858D8BD28E227C
:1006D9008E4E8F4F758E1075CBEA75CA6085CBCD5E
:1006E90085CACCC2ADD2CAE54F454E600FC2CF30E4
:0F06F900CFFDE54F154F7002154E80EBC2CA22A0
:100708008E508F51758E1075CB0075CA0A85CBCD6A
:1007180085CACCC2ADD2CAE5514550600FC2CF30B0
:0F072800CFFDE55115517002155080EBC2CA226A
:1005E4008F408E3F8D3E8C3D7F007E007D007C00E1
:1005F400AB40AA3FA93EA83DC31203CF6022AF403F
:10060400AE3FAD3EAC3D7BFF7AFF79FF78FFEF2B29
:10061400F540EE3AF53FED39F53EEC38F53D80C84E
:0106240022B3
:01003A0022A3
:10003E007D127C007F1F1205977D047C407F70121D
:10004E0005977F027E001206D97D007C407F7012DC
:10005E0005977D007C807F001205977D067C007FD2
:10006E00311205977D207C037F131205977D0E7C40
:10007E00007F311205977D007C127F0012059722BA
:0404EA008F418D426F
:1004EE007538207FFF7EFF7DFF7CFF120419753863
:1004FE00047F067E007D007C00120419AF41E4FCEF
:10050E00FDFE753805120419AF42E4FCFDFE753888
:10051E00051204197538017F017E007D007C0012E2
:10052E0004191206668E438F447538017F017E00D2
:0B053E007D007C00120419AE43AF44A6
:01054900228F
:100484008F458D468A478B487538207FFF7EFF7DD8
:10049400FF7CFF1204197538047F057E007D007C03
:1004A40000120419AF45E4FCFDFE75380512041969
:1004B400AF46E4FCFDFE7538051204197538027F59
:1004C400027E007D007C00120419AE47AF48E4FCB4
:1004D400FD7538101204197538017F017E007D0006
:0604E4007C001204192245
:10066600754A00754B00754900E549C3941050253D
:10067600D29512003AC29512003AE54B25E0F54BA9
:10068600E54A33F54AA294E4FE33FFEF424BEE42CD
:090696004A054980D4AE4AAF4B7D
:01069F002238
:100419008F378E368D358C34AF37AE36AD35AC343B
:10042900C374209538F9A8011203E08F378E368DF1
:10043900358C34E5386043E5375400FFE536540020
:10044900FEE5355400FDE5345480FCEC4D4E4F601B
:1004590004D2948002C294D29512003AC295120035
:100469003AAF37AE36AD35AC3478011203E08F3789
:0B0479008E368D358C34153880B9228A
:02054A008F130D
:10054C00E513541FFF7E008E168F17E513C413544A
:10055C0007FF7E00751800EF5403F519AF547E00A9
:10056C00EF65197003EE65186011AA18E5194410AF
:10057C00FB7D1F7F04120484851954AD177F041270
:0A058C0004EA8E148F15AE14AF15AB
:010596002242
:060597008F218C228D2350
:10059D00E521541FFF7E008E248F25E521C41354C1
:1005AD0007FF7E00752600EF5403F527AF547E003C
:1005BD00EF65277003EE65266011AA26E527441026
:1005CD00FB7D1F7F04120484852754AD25AB23AA20
:0605DD00227F04120484D9
:0105E30022F5
:1006AC00030F000000010900030B000000010A0009
:0A06BC00010E00011200C101C1008F
:0D07B60075C15D75F40243C18043E6012268
:100003008B1A8A1B891C2001FDD2017512A0C2051F
:10001300D203D202D204AB1AAA1BA91C1203A4FF57
:100023008F0EAB1DAA1EA91F8B0F8A108911750A8B
:0700330001D2C52001FD22EE
:100765008F528D532001FDD2017512A0C205D2030F
:10077500C202D20485520E8553097B007A0079099D
:0C0785008B0B8A0C890D750A01D2C5226D
:03003B000200962A
:10009600C0E0C083C082C0D075D000C000C001C01F
:0B00A60002C003C004C005C006C00774
:1000B100C206E5C054F0FFEF1203F3014D8000DFEB
:1000C100C000C9E00000018C8512C253C2FEA20526
:1000D100E433FFEF42C2C2C575080002018E30C190
:1000E10060300007D2C5C20002018E300312C20384
:1000F100850EC220020302018ED200D20502018EBA
:1001010030050302018EAF0A7E00AD08ED3395E0A4
:10011100FCC3ED9FEE6480F8EC648098501BAB0B40
:10012100AA0CA90D1203A4FF8FC27401250DF50DB0
:10013100E4350CF50C05088054C2C4C201804E8020
:100141004C300404D2C58045D2068041AF0A7E00FE
:10015100AD08ED3395E0FCC3ED9FEE6480F8EC64EF
:100161008098501AAB0FAA10A911E5C21203BD74F1
:10017100012511F511E43510F5100508D2C1E50A84
:10018100B5080AC201C2C1D2C48002D20630060E2D
:1001910053C17F43C180C2C4C2C5C2C1C206C2C06D
:1001A100D007D006D005D004D003D002D001D000B2
:0901B100D0D0D082D083D0E0321E
:01008E00224F
:1006C60001330002300000C107013200012E000193
:0206D6002F00F3
:0D07C30075847075B00D75851743E7082229
:100625008B288A29892A30B2FD75E700C2B2758602
:100635006030B1FDAB28AA29A92A1203A4FF8F8631
:1006450030B1FD75860030B1FDC2B730B7FDC2B718
:10065500D2B275E708AB2BAA2CA92DE5861203BDEE
:010665002272
:030093000201BAAD
:0F01BA00C0E0C083C082C0D075D000C000C007B5
:1001C90030B607C2B6D207020269E586B44002D248
:1001D90007E52F7032E5321203F301F00401F80844
:1001E9000200200000020B853386752F02806F758F
:1001F90086FF752F028067752E007586FF752F01A2
:10020900805C752F028057E52FB40129E53212036E
:10021900F302212000000239AF2E74302FF8A68690
:100229007586FF052EE52E64017033752F02802E29
:10023900752F028029E52FB40224E5321203F30257
:10024900520802572000000262858633800BAF2EC8
:1002590074302FF8A686752F00D2B2752F00C2B759
:0D026900D007D000D0D0D082D083D0E032BA
:03000000020318E0
:0C031800787FE4F6D8FD75815402035F85
:1003A400BB010689828A83E0225002E722BBFE0257
:0903B400E32289828A83E493228A
:1003BD00BB010689828A83F0225002F722BBFE011F
:0203CD00F32219
:1003CF00EB9FF5F0EA9E42F0E99D42F0E89C45F084
:0103DF0022FB
:1003E000E8600FEFC333FFEE33FEED33FDEC33FC7B
:0303F000D8F1221F
:1003F300D083D082F8E4937012740193700DA3A399
:1004030093F8740193F5828883E4737402936860AC
:06041300EFA3A3A380DFAC
:10032400020276E493A3F8E493A34003F68001F277
:1003340008DFF48029E493A3F85407240CC8C333DA
:10034400C4540F4420C8834004F456800146F6DFA9
:10035400E4800B01020408102040809006A0E47E93
:10036400019360BCA3FF543F30E509541FFEE4939E
:10037400A360010ECF54C025E060A840B8E493A365
:10038400FAE493A3F8E493A3C8C582C8CAC583CA90
:10039400F0A3C8C582C8CAC583CADFE9DEE780BE48
:0106D8000021
:00000001FF
